{
  "contractName": "Science",
  "abi": [
    {
      "constant": true,
      "inputs": [
        {
          "name": "",
          "type": "bytes32"
        },
        {
          "name": "",
          "type": "uint256"
        }
      ],
      "name": "votes",
      "outputs": [
        {
          "name": "votedFor",
          "type": "uint256"
        },
        {
          "name": "votedAgainst",
          "type": "uint256"
        },
        {
          "name": "target",
          "type": "uint256"
        },
        {
          "name": "result",
          "type": "bool"
        },
        {
          "name": "completed",
          "type": "bool"
        }
      ],
      "payable": false,
      "stateMutability": "view",
      "type": "function"
    },
    {
      "constant": true,
      "inputs": [
        {
          "name": "",
          "type": "bytes32"
        }
      ],
      "name": "researches",
      "outputs": [
        {
          "name": "researcher",
          "type": "address"
        },
        {
          "name": "paperURL",
          "type": "string"
        },
        {
          "name": "title",
          "type": "string"
        },
        {
          "name": "id",
          "type": "bytes32"
        },
        {
          "name": "stakedAmount",
          "type": "uint256"
        },
        {
          "name": "votesLength",
          "type": "uint256"
        },
        {
          "name": "isLocked",
          "type": "bool"
        },
        {
          "name": "reproducer",
          "type": "address"
        },
        {
          "name": "reproducedURL",
          "type": "string"
        },
        {
          "name": "state",
          "type": "uint8"
        }
      ],
      "payable": false,
      "stateMutability": "view",
      "type": "function"
    },
    {
      "constant": true,
      "inputs": [
        {
          "name": "",
          "type": "uint256"
        }
      ],
      "name": "researchKeys",
      "outputs": [
        {
          "name": "",
          "type": "bytes32"
        }
      ],
      "payable": false,
      "stateMutability": "view",
      "type": "function"
    },
    {
      "constant": true,
      "inputs": [
        {
          "name": "",
          "type": "address"
        }
      ],
      "name": "addressToOrcid",
      "outputs": [
        {
          "name": "",
          "type": "bytes32"
        }
      ],
      "payable": false,
      "stateMutability": "view",
      "type": "function"
    },
    {
      "inputs": [],
      "payable": true,
      "stateMutability": "payable",
      "type": "constructor"
    },
    {
      "constant": true,
      "inputs": [],
      "name": "getResearchKeys",
      "outputs": [
        {
          "name": "",
          "type": "bytes32[]"
        }
      ],
      "payable": false,
      "stateMutability": "view",
      "type": "function"
    },
    {
      "constant": true,
      "inputs": [
        {
          "name": "id",
          "type": "bytes32"
        }
      ],
      "name": "getResearchStakers",
      "outputs": [
        {
          "name": "",
          "type": "address[]"
        }
      ],
      "payable": false,
      "stateMutability": "view",
      "type": "function"
    },
    {
      "constant": true,
      "inputs": [
        {
          "name": "id",
          "type": "bytes32"
        },
        {
          "name": "adr",
          "type": "address"
        }
      ],
      "name": "getStake",
      "outputs": [
        {
          "name": "",
          "type": "uint256"
        }
      ],
      "payable": false,
      "stateMutability": "view",
      "type": "function"
    },
    {
      "constant": true,
      "inputs": [
        {
          "name": "id",
          "type": "bytes32"
        },
        {
          "name": "voteIdx",
          "type": "uint256"
        },
        {
          "name": "adr",
          "type": "address"
        }
      ],
      "name": "getVote",
      "outputs": [
        {
          "name": "",
          "type": "uint8"
        }
      ],
      "payable": false,
      "stateMutability": "view",
      "type": "function"
    },
    {
      "constant": false,
      "inputs": [
        {
          "name": "orcidStr",
          "type": "string"
        },
        {
          "name": "paperURL",
          "type": "string"
        },
        {
          "name": "title",
          "type": "string"
        }
      ],
      "name": "publishResearch",
      "outputs": [],
      "payable": true,
      "stateMutability": "payable",
      "type": "function"
    },
    {
      "constant": false,
      "inputs": [
        {
          "name": "orcidStr",
          "type": "string"
        },
        {
          "name": "id",
          "type": "bytes32"
        }
      ],
      "name": "stakeResearch",
      "outputs": [],
      "payable": true,
      "stateMutability": "payable",
      "type": "function"
    },
    {
      "constant": false,
      "inputs": [
        {
          "name": "orcidStr",
          "type": "string"
        },
        {
          "name": "id",
          "type": "bytes32"
        }
      ],
      "name": "startReproduce",
      "outputs": [],
      "payable": true,
      "stateMutability": "payable",
      "type": "function"
    },
    {
      "constant": false,
      "inputs": [
        {
          "name": "id",
          "type": "bytes32"
        }
      ],
      "name": "submitReproduction",
      "outputs": [],
      "payable": false,
      "stateMutability": "nonpayable",
      "type": "function"
    },
    {
      "constant": false,
      "inputs": [
        {
          "name": "id",
          "type": "bytes32"
        },
        {
          "name": "voteFor",
          "type": "bool"
        }
      ],
      "name": "vote",
      "outputs": [],
      "payable": false,
      "stateMutability": "nonpayable",
      "type": "function"
    }
  ],
  "bytecode": "0x6080604052670de0b6b3a7640000600455670de0b6b3a7640000600555670de0b6b3a764000060065561237f806100376000396000f3006080604052600436106100c5576000357c0100000000000000000000000000000000000000000000000000000000900463ffffffff1680630847a4fb146100ca5780632250214d1461013d5780635399ab4c146101a75780635c56f8421461020c5780637659faf0146104315780637e43d5631461049d578063976d6e9214610507578063990e4073146105385780639f2ce67814610581578063b7609b44146105be578063b9f48c071461061d578063c3a06e7a146106a3578063e4ef27591461078b575b600080fd5b3480156100d657600080fd5b50610103600480360381019080803560001916906020019092919080359060200190929190505050610808565b6040518086815260200185815260200184815260200183151515158152602001821515151581526020019550505050505060405180910390f35b6101a5600480360381019080803590602001908201803590602001908080601f01602080910402602001604051908101604052809392919081815260200183838082843782019150505050505091929192908035600019169060200190929190505050610874565b005b3480156101b357600080fd5b506101f66004803603810190808035600019169060200190929190803573ffffffffffffffffffffffffffffffffffffffff169060200190929190505050610c3a565b6040518082815260200191505060405180910390f35b34801561021857600080fd5b5061023b6004803603810190808035600019169060200190929190505050610d06565b604051808b73ffffffffffffffffffffffffffffffffffffffff1673ffffffffffffffffffffffffffffffffffffffff16815260200180602001806020018a60001916600019168152602001898152602001888152602001871515151581526020018673ffffffffffffffffffffffffffffffffffffffff1673ffffffffffffffffffffffffffffffffffffffff168152602001806020018560028111156102df57fe5b60ff16815260200184810384528d818151815260200191508051906020019080838360005b8381101561031f578082015181840152602081019050610304565b50505050905090810190601f16801561034c5780820380516001836020036101000a031916815260200191505b5084810383528c818151815260200191508051906020019080838360005b8381101561038557808201518184015260208101905061036a565b50505050905090810190601f1680156103b25780820380516001836020036101000a031916815260200191505b50848103825286818151815260200191508051906020019080838360005b838110156103eb5780820151818401526020810190506103d0565b50505050905090810190601f1680156104185780820380516001836020036101000a031916815260200191505b509d505050505050505050505050505060405180910390f35b34801561043d57600080fd5b50610446610f7c565b6040518080602001828103825283818151815260200191508051906020019060200280838360005b8381101561048957808201518184015260208101905061046e565b505050509050019250505060405180910390f35b610505600480360381019080803590602001908201803590602001908080601f01602080910402602001604051908101604052809392919081815260200183838082843782019150505050505091929192908035600019169060200190929190505050610fd8565b005b34801561051357600080fd5b50610536600480360381019080803560001916906020019092919050505061141e565b005b34801561054457600080fd5b506105636004803603810190808035906020019092919050505061153b565b60405180826000191660001916815260200191505060405180910390f35b34801561058d57600080fd5b506105bc600480360381019080803560001916906020019092919080351515906020019092919050505061155e565b005b3480156105ca57600080fd5b506105ff600480360381019080803573ffffffffffffffffffffffffffffffffffffffff169060200190929190505050611a7b565b60405180826000191660001916815260200191505060405180910390f35b34801561062957600080fd5b5061064c6004803603810190808035600019169060200190929190505050611a93565b6040518080602001828103825283818151815260200191508051906020019060200280838360005b8381101561068f578082015181840152602081019050610674565b505050509050019250505060405180910390f35b610789600480360381019080803590602001908201803590602001908080601f0160208091040260200160405190810160405280939291908181526020018383808284378201915050505050509192919290803590602001908201803590602001908080601f0160208091040260200160405190810160405280939291908181526020018383808284378201915050505050509192919290803590602001908201803590602001908080601f0160208091040260200160405190810160405280939291908181526020018383808284378201915050505050509192919290505050611ba5565b005b34801561079757600080fd5b506107e4600480360381019080803560001916906020019092919080359060200190929190803573ffffffffffffffffffffffffffffffffffffffff16906020019092919050505061205b565b604051808260028111156107f457fe5b60ff16815260200191505060405180910390f35b60036020528160005260406000208181548110151561082357fe5b9060005260206000209060050201600091509150508060000154908060010154908060020154908060030160009054906101000a900460ff16908060030160019054906101000a900460ff16905085565b60008060055480341015151561088957600080fd5b83600060016000836000191660001916815260200190815260200160002060000160009054906101000a900473ffffffffffffffffffffffffffffffffffffffff1673ffffffffffffffffffffffffffffffffffffffff16141515156108ee57600080fd5b84600060016000836000191660001916815260200190815260200160002060080160019054906101000a900473ffffffffffffffffffffffffffffffffffffffff1673ffffffffffffffffffffffffffffffffffffffff1614151561095257600080fd5b86600080826040516020018082805190602001908083835b60208310151561098f578051825260208201915060208101905060208303925061096a565b6001836020036101000a0380198251168184511680821785525050505050509050019150506040516020818303038152906040526040518082805190602001908083835b6020831015156109f857805182526020820191506020810190506020830392506109d3565b6001836020036101000a038019825116818451168082178552505050505050905001915050604051809103902091506000803373ffffffffffffffffffffffffffffffffffffffff1673ffffffffffffffffffffffffffffffffffffffff168152602001908152602001600020549050600060010282600019161480610a85575081600019168160001916145b1515610a9057600080fd5b896040516020018082805190602001908083835b602083101515610ac95780518252602082019150602081019050602083039250610aa4565b6001836020036101000a0380198251168184511680821785525050505050509050019150506040516020818303038152906040526040518082805190602001908083835b602083101515610b325780518252602082019150602081019050602083039250610b0d565b6001836020036101000a03801982511681845116808217855250505050505090500191505060405180910390209750600160008a600019166000191681526020019081526020016000209650876000803373ffffffffffffffffffffffffffffffffffffffff1673ffffffffffffffffffffffffffffffffffffffff1681526020019081526020016000208160001916905550338760080160016101000a81548173ffffffffffffffffffffffffffffffffffffffff021916908373ffffffffffffffffffffffffffffffffffffffff160217905550600187600a0160006101000a81548160ff02191690836002811115610c2957fe5b021790555050505050505050505050565b600082600060016000836000191660001916815260200190815260200160002060000160009054906101000a900473ffffffffffffffffffffffffffffffffffffffff1673ffffffffffffffffffffffffffffffffffffffff1614151515610ca157600080fd5b60016000856000191660001916815260200190815260200160002060050160008473ffffffffffffffffffffffffffffffffffffffff1673ffffffffffffffffffffffffffffffffffffffff1681526020019081526020016000205491505092915050565b60016020528060005260406000206000915090508060000160009054906101000a900473ffffffffffffffffffffffffffffffffffffffff1690806001018054600181600116156101000203166002900480601f016020809104026020016040519081016040528092919081815260200182805460018160011615610100020316600290048015610dd85780601f10610dad57610100808354040283529160200191610dd8565b820191906000526020600020905b815481529060010190602001808311610dbb57829003601f168201915b505050505090806002018054600181600116156101000203166002900480601f016020809104026020016040519081016040528092919081815260200182805460018160011615610100020316600290048015610e765780601f10610e4b57610100808354040283529160200191610e76565b820191906000526020600020905b815481529060010190602001808311610e5957829003601f168201915b5050505050908060030154908060040154908060070154908060080160009054906101000a900460ff16908060080160019054906101000a900473ffffffffffffffffffffffffffffffffffffffff1690806009018054600181600116156101000203166002900480601f016020809104026020016040519081016040528092919081815260200182805460018160011615610100020316600290048015610f5f5780601f10610f3457610100808354040283529160200191610f5f565b820191906000526020600020905b815481529060010190602001808311610f4257829003601f168201915b50505050509080600a0160009054906101000a900460ff1690508a565b60606002805480602002602001604051908101604052809291908181526020018280548015610fce57602002820191906000526020600020905b81546000191681526020019060010190808311610fb6575b5050505050905090565b60008082600060016000836000191660001916815260200190815260200160002060000160009054906101000a900473ffffffffffffffffffffffffffffffffffffffff1673ffffffffffffffffffffffffffffffffffffffff161415151561104057600080fd5b84600080826040516020018082805190602001908083835b60208310151561107d5780518252602082019150602081019050602083039250611058565b6001836020036101000a0380198251168184511680821785525050505050509050019150506040516020818303038152906040526040518082805190602001908083835b6020831015156110e657805182526020820191506020810190506020830392506110c1565b6001836020036101000a038019825116818451168082178552505050505050905001915050604051809103902091506000803373ffffffffffffffffffffffffffffffffffffffff1673ffffffffffffffffffffffffffffffffffffffff168152602001908152602001600020549050600060010282600019161480611173575081600019168160001916145b151561117e57600080fd5b60065480341015151561119057600080fd5b8760016000826000191660001916815260200190815260200160002060080160009054906101000a900460ff161515156111c957600080fd5b896040516020018082805190602001908083835b60208310151561120257805182526020820191506020810190506020830392506111dd565b6001836020036101000a0380198251168184511680821785525050505050509050019150506040516020818303038152906040526040518082805190602001908083835b60208310151561126b5780518252602082019150602081019050602083039250611246565b6001836020036101000a03801982511681845116808217855250505050505090500191505060405180910390209750600160008a600019166000191681526020019081526020016000209650876000803373ffffffffffffffffffffffffffffffffffffffff1673ffffffffffffffffffffffffffffffffffffffff168152602001908152602001600020816000191690555060008760050160003373ffffffffffffffffffffffffffffffffffffffff1673ffffffffffffffffffffffffffffffffffffffff1681526020019081526020016000205414156113b157866006013390806001815401808255809150509060018203906000526020600020016000909192909190916101000a81548173ffffffffffffffffffffffffffffffffffffffff021916908373ffffffffffffffffffffffffffffffffffffffff160217905550505b348760050160003373ffffffffffffffffffffffffffffffffffffffff1673ffffffffffffffffffffffffffffffffffffffff1681526020019081526020016000206000828254019250508190555034876004016000828254019250508190555050505050505050505050565b600081600060016000836000191660001916815260200190815260200160002060000160009054906101000a900473ffffffffffffffffffffffffffffffffffffffff1673ffffffffffffffffffffffffffffffffffffffff161415151561148557600080fd5b60016000846000191660001916815260200190815260200160002091508160080160019054906101000a900473ffffffffffffffffffffffffffffffffffffffff1673ffffffffffffffffffffffffffffffffffffffff163373ffffffffffffffffffffffffffffffffffffffff1614151561150057600080fd5b6001600281111561150d57fe5b82600a0160009054906101000a900460ff16600281111561152a57fe5b14151561153657600080fd5b505050565b60028181548110151561154a57fe5b906000526020600020016000915090505481565b600080600084600060016000836000191660001916815260200190815260200160002060000160009054906101000a900473ffffffffffffffffffffffffffffffffffffffff1673ffffffffffffffffffffffffffffffffffffffff16141515156115c857600080fd5b85600060016000836000191660001916815260200190815260200160002060080160019054906101000a900473ffffffffffffffffffffffffffffffffffffffff1673ffffffffffffffffffffffffffffffffffffffff161415151561162d57600080fd5b60016000886000191660001916815260200190815260200160002094506001600281111561165757fe5b85600a0160009054906101000a900460ff16600281111561167457fe5b14151561168057600080fd5b8460080160009054906101000a900460ff1615156116d95784600701600081548092919060010191905055508460070154600360008960001916600019168152602001908152602001600020816116d7919061221d565b505b600185600701540393506003600088600019166000191681526020019081526020016000208481548110151561170b57fe5b906000526020600020906005020192506000600281111561172857fe5b8360040160003373ffffffffffffffffffffffffffffffffffffffff1673ffffffffffffffffffffffffffffffffffffffff16815260200190815260200160002060009054906101000a900460ff16600281111561178257fe5b14151561178e57600080fd5b8260030160019054906101000a900460ff161515156117ac57600080fd5b8460080160009054906101000a900460ff1615156118015760018560080160006101000a81548160ff0219169083151502179055506001600286600601805490508115156117f657fe5b040183600201819055505b85156118fe57826000016000815480929190600101919050555060018360040160003373ffffffffffffffffffffffffffffffffffffffff1673ffffffffffffffffffffffffffffffffffffffff16815260200190815260200160002060006101000a81548160ff0219169083600281111561187957fe5b0217905550826002015483600001541015156118f95760018360030160016101000a81548160ff02191690831515021790555060018360030160006101000a81548160ff021916908315150217905550600285600a0160006101000a81548160ff021916908360028111156118ea57fe5b02179055506118f885612150565b5b611a72565b826001016000815480929190600101919050555060028360040160003373ffffffffffffffffffffffffffffffffffffffff1673ffffffffffffffffffffffffffffffffffffffff16815260200190815260200160002060006101000a81548160ff0219169083600281111561197057fe5b021790555082600201548360010154101515611a715760018360030160016101000a81548160ff02191690831515021790555060008360030160006101000a81548160ff02191690831515021790555060008560080160016101000a81548173ffffffffffffffffffffffffffffffffffffffff021916908373ffffffffffffffffffffffffffffffffffffffff1602179055506020604051908101604052806000815250856009019080519060200190611a2c92919061224f565b50600085600a0160006101000a81548160ff02191690836002811115611a4e57fe5b021790555060008560080160006101000a81548160ff0219169083151502179055505b5b50505050505050565b60006020528060005260406000206000915090505481565b606081600060016000836000191660001916815260200190815260200160002060000160009054906101000a900473ffffffffffffffffffffffffffffffffffffffff1673ffffffffffffffffffffffffffffffffffffffff1614151515611afa57600080fd5b600160008460001916600019168152602001908152602001600020600601805480602002602001604051908101604052809291908181526020018280548015611b9857602002820191906000526020600020905b8160009054906101000a900473ffffffffffffffffffffffffffffffffffffffff1673ffffffffffffffffffffffffffffffffffffffff1681526020019060010190808311611b4e575b5050505050915050919050565b6000806000600454803410151515611bbc57600080fd5b86600080826040516020018082805190602001908083835b602083101515611bf95780518252602082019150602081019050602083039250611bd4565b6001836020036101000a0380198251168184511680821785525050505050509050019150506040516020818303038152906040526040518082805190602001908083835b602083101515611c625780518252602082019150602081019050602083039250611c3d565b6001836020036101000a038019825116818451168082178552505050505050905001915050604051809103902091506000803373ffffffffffffffffffffffffffffffffffffffff1673ffffffffffffffffffffffffffffffffffffffff168152602001908152602001600020549050600060010282600019161480611cef575081600019168160001916145b1515611cfa57600080fd5b896040516020018082805190602001908083835b602083101515611d335780518252602082019150602081019050602083039250611d0e565b6001836020036101000a0380198251168184511680821785525050505050509050019150506040516020818303038152906040526040518082805190602001908083835b602083101515611d9c5780518252602082019150602081019050602083039250611d77565b6001836020036101000a0380198251168184511680821785525050505050509050019150506040518091039020965042878a600143034060405160200180858152602001846000191660001916815260200183805190602001908083835b602083101515611e1f5780518252602082019150602081019050602083039250611dfa565b6001836020036101000a03801982511681845116808217855250505050505090500182600019166000191681526020019450505050506040516020818303038152906040526040518082805190602001908083835b602083101515611e995780518252602082019150602081019050602083039250611e74565b6001836020036101000a03801982511681845116808217855250505050505090500191505060405180910390209550600160008760001916600019168152602001908152602001600020945060008560000160009054906101000a900473ffffffffffffffffffffffffffffffffffffffff1673ffffffffffffffffffffffffffffffffffffffff16141515611f2e57600080fd5b866000803373ffffffffffffffffffffffffffffffffffffffff1673ffffffffffffffffffffffffffffffffffffffff1681526020019081526020016000208160001916905550338560000160006101000a81548173ffffffffffffffffffffffffffffffffffffffff021916908373ffffffffffffffffffffffffffffffffffffffff16021790555088856001019080519060200190611fd092919061224f565b5087856002019080519060200190611fe992919061224f565b5085856003018160001916905550600085600a0160006101000a81548160ff0219169083600281111561201857fe5b0217905550600286908060018154018082558091505090600182039060005260206000200160009091929091909150906000191690555050505050505050505050565b600083600060016000836000191660001916815260200190815260200160002060000160009054906101000a900473ffffffffffffffffffffffffffffffffffffffff1673ffffffffffffffffffffffffffffffffffffffff16141515156120c257600080fd5b600360008660001916600019168152602001908152602001600020848154811015156120ea57fe5b906000526020600020906005020160040160008473ffffffffffffffffffffffffffffffffffffffff1673ffffffffffffffffffffffffffffffffffffffff16815260200190815260200160002060009054906101000a900460ff169150509392505050565b60008060008360040154925060028381151561216857fe5b049150818303905061219e8460000160009054906101000a900473ffffffffffffffffffffffffffffffffffffffff16826121d2565b6121cc8460080160019054906101000a900473ffffffffffffffffffffffffffffffffffffffff16836121d2565b50505050565b8173ffffffffffffffffffffffffffffffffffffffff166108fc829081150290604051600060405180830381858888f19350505050158015612218573d6000803e3d6000fd5b505050565b81548183558181111561224a5760050281600502836000526020600020918201910161224991906122cf565b5b505050565b828054600181600116156101000203166002900490600052602060002090601f016020900481019282601f1061229057805160ff19168380011785556122be565b828001600101855582156122be579182015b828111156122bd5782518255916020019190600101906122a2565b5b5090506122cb919061232e565b5090565b61232b91905b8082111561232757600080820160009055600182016000905560028201600090556003820160006101000a81549060ff02191690556003820160016101000a81549060ff0219169055506005016122d5565b5090565b90565b61235091905b8082111561234c576000816000905550600101612334565b5090565b905600a165627a7a723058206dcbdd50b4b71480770cca34b22c2e73b945369b39b700c8ca4306a2e0685e3e0029",
  "source": "pragma solidity 0.4.24;\n\ncontract Science {\n    enum ResearchState {PUBLISHED, PENDING, REPRODUCED}\n    enum VotedState {NOT_VOTED, VOTED_FOR, VOTED_AGAINST}\n    \n    struct Vote {\n        uint votedFor;\n        uint votedAgainst;\n        uint target;\n        bool result;\n        bool completed;\n        \n        mapping(address => VotedState) voted;\n    }\n    \n    struct Research {\n        address researcher;\n        string paperURL;\n        string title;\n        bytes32 id;\n        \n        uint stakedAmount;\n        mapping(address => uint) staked;\n        address[] stakers;\n        \n        uint votesLength;\n        bool isLocked;\n        \n        address reproducer;\n        string reproducedURL;\n        \n        ResearchState state;\n    }\n    \n    //orcids are hashed because strings and solidity aren't a good combination\n    mapping (address => bytes32) public addressToOrcid;\n    \n    mapping (bytes32 => Research) public researches;\n    bytes32[] public researchKeys;\n    \n    mapping (bytes32 => Vote[]) public votes;\n    \n    \n    uint publishFee = 1 ether;\n    uint reproduceFee = 1 ether;\n    uint minStake = 1 ether;\n    \n    modifier paidEnough(uint fee) {\n        require(msg.value >= fee);\n        _;\n    }\n    \n    modifier researchExists(bytes32 id) {\n        require(researches[id].researcher != 0x0);\n        _;\n    }\n    \n    modifier researchNotReproducing(bytes32 id) {\n        require(researches[id].reproducer == 0x0);\n        _;\n    }\n    \n    modifier researchReproducing(bytes32 id) {\n        require(researches[id].reproducer != 0x0);\n        _;\n    }\n    \n    modifier researchNotLocked(bytes32 id) {\n        require(!researches[id].isLocked);\n        _;\n    }\n    \n    modifier researchPending(bytes32 id) {\n        require(researches[id].state == ResearchState.PENDING);\n        _;\n    }\n    \n    modifier orcidTheSame(string orcidStr) {\n        bytes32 orcid = keccak256(abi.encodePacked(orcidStr));\n        bytes32 currOrcidHash = addressToOrcid[msg.sender];\n        require(orcid == 0x0 || currOrcidHash == orcid);\n        _;\n    }\n    \n    constructor () public payable {\n        //...\n    }\n    \n    //read\n    function getResearchKeys() public view returns (bytes32[]) {\n        return researchKeys;\n    }\n    \n    function getResearchStakers(bytes32 id) public view researchExists(id) returns (address[]) {\n        return researches[id].stakers;\n    }\n    \n    function getStake(bytes32 id, address adr) public view researchExists(id) returns (uint) {\n        return researches[id].staked[adr];\n    }\n    \n    function getVote(bytes32 id, uint voteIdx, address adr) public view researchExists(id) returns (VotedState) {\n        return votes[id][voteIdx].voted[adr];\n    }\n    \n    //write\n    function publishResearch(string orcidStr, string paperURL, string title) public payable paidEnough(publishFee) orcidTheSame(orcidStr) {\n        bytes32 orcid = keccak256(abi.encodePacked(orcidStr));\n        bytes32 id = keccak256(abi.encodePacked(now, orcid, paperURL, blockhash(block.number-1)));\n        Research storage res = researches[id];\n        \n        //somehow it shouldn't overlap\n        require(res.researcher == 0x0);\n        \n        addressToOrcid[msg.sender] = orcid;\n        res.researcher = msg.sender;\n        res.paperURL = paperURL;\n        res.title = title;\n        res.id = id;\n        res.state = ResearchState.PUBLISHED;\n        \n        researchKeys.push(id);\n    }\n    \n    function stakeResearch(string orcidStr, bytes32 id) public payable researchExists(id) orcidTheSame(orcidStr) paidEnough(minStake) researchNotLocked(id) {\n        bytes32 orcid = keccak256(abi.encodePacked(orcidStr));\n        \n        Research storage res = researches[id];\n        \n        addressToOrcid[msg.sender] = orcid;\n        \n        if(res.staked[msg.sender] == 0) {\n            res.stakers.push(msg.sender);\n        }\n        res.staked[msg.sender] += msg.value;\n        res.stakedAmount += msg.value;\n    }\n    \n    //TODO: Withdraw stake\n    \n    function startReproduce(string orcidStr, bytes32 id) public payable paidEnough(reproduceFee) researchExists(id) researchNotReproducing(id) orcidTheSame(orcidStr) {\n        bytes32 orcid = keccak256(abi.encodePacked(orcidStr));\n        \n        Research storage res = researches[id];\n        \n        addressToOrcid[msg.sender] = orcid;\n        res.reproducer = msg.sender;\n        res.state = ResearchState.PENDING;\n    }\n    \n    function submitReproduction(bytes32 id) public researchExists(id) {\n        Research storage res = researches[id];\n        require(msg.sender == res.reproducer);\n        require(res.state == ResearchState.PENDING);\n        \n        //TODO\n    }\n    \n    function vote(bytes32 id, bool voteFor) public researchExists(id) researchReproducing(id) {\n        Research storage res = researches[id];\n        \n        require(res.state == ResearchState.PENDING);\n        \n        uint voteIdx;\n        \n        if(!res.isLocked) { //if there isn't a voting going on\n            res.votesLength++;\n            votes[id].length = res.votesLength;\n        }\n        \n        voteIdx = res.votesLength-1;\n        \n        Vote storage voteObj = votes[id][voteIdx];\n        \n        require(voteObj.voted[msg.sender] == VotedState.NOT_VOTED); // no double voting\n        require(!voteObj.completed); // no necro voting\n        \n        if(!res.isLocked) {\n            res.isLocked = true;\n            \n            voteObj.target = res.stakers.length / 2 + 1; //50% + 1 consensus\n        }\n        \n        if(voteFor) {\n            voteObj.votedFor++;\n            voteObj.voted[msg.sender] = VotedState.VOTED_FOR;\n            \n            if(voteObj.votedFor >= voteObj.target) {\n                voteObj.completed = true;\n                voteObj.result = true;\n                \n                \n                res.state = ResearchState.REPRODUCED;\n                _researchReproduced(res);\n                //TODO: Event\n            }\n        } else {\n            voteObj.votedAgainst++;\n            voteObj.voted[msg.sender] = VotedState.VOTED_AGAINST;\n            \n            if(voteObj.votedAgainst >= voteObj.target) {\n                voteObj.completed = true;\n                voteObj.result = false;\n                \n                res.reproducer = 0x0; //reset to start\n                res.reproducedURL = \"\";\n                res.state = ResearchState.PUBLISHED;\n                \n                res.isLocked = false;\n                //TODO: Event\n            }\n        }\n    }\n    \n    function _researchReproduced(Research storage res) internal {\n        uint moneyToSplit = res.stakedAmount;\n        uint reproducerGets = moneyToSplit/2;\n        uint researcherGets = moneyToSplit - reproducerGets;\n        \n        _sendMoney(res.researcher, researcherGets);\n        _sendMoney(res.reproducer, reproducerGets);\n    }\n    \n    function _sendMoney(address to, uint value) internal {\n        to.transfer(value); //TODO: withdraw pattern\n    }\n    \n    //TODO: Owner withdraw?\n}",
  "sourcePath": "/home/zvezdin/programming/qub/blockchain/truffle/contracts/science.sol",
  "compiler": {
    "name": "solc",
    "version": "0.4.24+commit.e67f0147.Emscripten.clang"
  },
  "schemaVersion": "2.0.1",
  "updatedAt": "2018-07-21T15:17:06.221Z"
}