{
  "contractName": "Science",
  "abi": [
    {
      "constant": true,
      "inputs": [
        {
          "name": "",
          "type": "bytes32"
        },
        {
          "name": "",
          "type": "uint256"
        }
      ],
      "name": "votes",
      "outputs": [
        {
          "name": "votedFor",
          "type": "uint256"
        },
        {
          "name": "votedAgainst",
          "type": "uint256"
        },
        {
          "name": "target",
          "type": "uint256"
        },
        {
          "name": "result",
          "type": "bool"
        },
        {
          "name": "completed",
          "type": "bool"
        }
      ],
      "payable": false,
      "stateMutability": "view",
      "type": "function"
    },
    {
      "constant": true,
      "inputs": [
        {
          "name": "",
          "type": "bytes32"
        }
      ],
      "name": "researches",
      "outputs": [
        {
          "name": "researcher",
          "type": "address"
        },
        {
          "name": "paperURL",
          "type": "string"
        },
        {
          "name": "title",
          "type": "string"
        },
        {
          "name": "id",
          "type": "bytes32"
        },
        {
          "name": "stakedAmount",
          "type": "uint256"
        },
        {
          "name": "votesLength",
          "type": "uint256"
        },
        {
          "name": "isLocked",
          "type": "bool"
        },
        {
          "name": "reproducer",
          "type": "address"
        },
        {
          "name": "reproducedURL",
          "type": "string"
        },
        {
          "name": "state",
          "type": "uint8"
        }
      ],
      "payable": false,
      "stateMutability": "view",
      "type": "function"
    },
    {
      "constant": true,
      "inputs": [
        {
          "name": "",
          "type": "uint256"
        }
      ],
      "name": "researchKeys",
      "outputs": [
        {
          "name": "",
          "type": "bytes32"
        }
      ],
      "payable": false,
      "stateMutability": "view",
      "type": "function"
    },
    {
      "constant": true,
      "inputs": [
        {
          "name": "",
          "type": "address"
        }
      ],
      "name": "addressToOrcid",
      "outputs": [
        {
          "name": "",
          "type": "string"
        }
      ],
      "payable": false,
      "stateMutability": "view",
      "type": "function"
    },
    {
      "inputs": [],
      "payable": true,
      "stateMutability": "payable",
      "type": "constructor"
    },
    {
      "constant": true,
      "inputs": [],
      "name": "getResearchKeys",
      "outputs": [
        {
          "name": "",
          "type": "bytes32[]"
        }
      ],
      "payable": false,
      "stateMutability": "view",
      "type": "function"
    },
    {
      "constant": true,
      "inputs": [
        {
          "name": "id",
          "type": "bytes32"
        }
      ],
      "name": "getResearchStakers",
      "outputs": [
        {
          "name": "",
          "type": "address[]"
        }
      ],
      "payable": false,
      "stateMutability": "view",
      "type": "function"
    },
    {
      "constant": true,
      "inputs": [
        {
          "name": "id",
          "type": "bytes32"
        },
        {
          "name": "adr",
          "type": "address"
        }
      ],
      "name": "getStake",
      "outputs": [
        {
          "name": "",
          "type": "uint256"
        }
      ],
      "payable": false,
      "stateMutability": "view",
      "type": "function"
    },
    {
      "constant": true,
      "inputs": [
        {
          "name": "id",
          "type": "bytes32"
        },
        {
          "name": "voteIdx",
          "type": "uint256"
        },
        {
          "name": "adr",
          "type": "address"
        }
      ],
      "name": "getVote",
      "outputs": [
        {
          "name": "",
          "type": "uint8"
        }
      ],
      "payable": false,
      "stateMutability": "view",
      "type": "function"
    },
    {
      "constant": false,
      "inputs": [
        {
          "name": "orcid",
          "type": "string"
        }
      ],
      "name": "register",
      "outputs": [],
      "payable": false,
      "stateMutability": "nonpayable",
      "type": "function"
    },
    {
      "constant": false,
      "inputs": [
        {
          "name": "paperURL",
          "type": "string"
        },
        {
          "name": "title",
          "type": "string"
        }
      ],
      "name": "publishResearch",
      "outputs": [],
      "payable": true,
      "stateMutability": "payable",
      "type": "function"
    },
    {
      "constant": false,
      "inputs": [
        {
          "name": "id",
          "type": "bytes32"
        }
      ],
      "name": "stakeResearch",
      "outputs": [],
      "payable": true,
      "stateMutability": "payable",
      "type": "function"
    },
    {
      "constant": false,
      "inputs": [
        {
          "name": "id",
          "type": "bytes32"
        }
      ],
      "name": "startReproduce",
      "outputs": [],
      "payable": true,
      "stateMutability": "payable",
      "type": "function"
    },
    {
      "constant": false,
      "inputs": [
        {
          "name": "id",
          "type": "bytes32"
        }
      ],
      "name": "submitReproduction",
      "outputs": [],
      "payable": false,
      "stateMutability": "nonpayable",
      "type": "function"
    },
    {
      "constant": false,
      "inputs": [
        {
          "name": "id",
          "type": "bytes32"
        },
        {
          "name": "voteFor",
          "type": "bool"
        }
      ],
      "name": "vote",
      "outputs": [],
      "payable": false,
      "stateMutability": "nonpayable",
      "type": "function"
    }
  ],
  "bytecode": "0x6080604052670de0b6b3a7640000600455670de0b6b3a7640000600555670de0b6b3a7640000600655611f92806100376000396000f3006080604052600436106100d0576000357c0100000000000000000000000000000000000000000000000000000000900463ffffffff1680630847a4fb146100d55780635399ab4c146101485780635c56f842146101ad5780637199292d146103d25780637659faf014610474578063976d6e92146104e0578063990e4073146105115780639f2ce6781461055a578063ac1efa4514610597578063b7609b44146105bb578063b9f48c0714610677578063e4ef2759146106fd578063f2c298be1461077a578063fe7a1e78146107e3575b600080fd5b3480156100e157600080fd5b5061010e600480360381019080803560001916906020019092919080359060200190929190505050610807565b6040518086815260200185815260200184815260200183151515158152602001821515151581526020019550505050505060405180910390f35b34801561015457600080fd5b506101976004803603810190808035600019169060200190929190803573ffffffffffffffffffffffffffffffffffffffff169060200190929190505050610873565b6040518082815260200191505060405180910390f35b3480156101b957600080fd5b506101dc600480360381019080803560001916906020019092919050505061093f565b604051808b73ffffffffffffffffffffffffffffffffffffffff1673ffffffffffffffffffffffffffffffffffffffff16815260200180602001806020018a60001916600019168152602001898152602001888152602001871515151581526020018673ffffffffffffffffffffffffffffffffffffffff1673ffffffffffffffffffffffffffffffffffffffff1681526020018060200185600281111561028057fe5b60ff16815260200184810384528d818151815260200191508051906020019080838360005b838110156102c05780820151818401526020810190506102a5565b50505050905090810190601f1680156102ed5780820380516001836020036101000a031916815260200191505b5084810383528c818151815260200191508051906020019080838360005b8381101561032657808201518184015260208101905061030b565b50505050905090810190601f1680156103535780820380516001836020036101000a031916815260200191505b50848103825286818151815260200191508051906020019080838360005b8381101561038c578082015181840152602081019050610371565b50505050905090810190601f1680156103b95780820380516001836020036101000a031916815260200191505b509d505050505050505050505050505060405180910390f35b610472600480360381019080803590602001908201803590602001908080601f0160208091040260200160405190810160405280939291908181526020018383808284378201915050505050509192919290803590602001908201803590602001908080601f0160208091040260200160405190810160405280939291908181526020018383808284378201915050505050509192919290505050610bb5565b005b34801561048057600080fd5b50610489610e60565b6040518080602001828103825283818151815260200191508051906020019060200280838360005b838110156104cc5780820151818401526020810190506104b1565b505050509050019250505060405180910390f35b3480156104ec57600080fd5b5061050f6004803603810190808035600019169060200190929190505050610ebc565b005b34801561051d57600080fd5b5061053c6004803603810190808035906020019092919050505061103b565b60405180826000191660001916815260200191505060405180910390f35b34801561056657600080fd5b50610595600480360381019080803560001916906020019092919080351515906020019092919050505061105e565b005b6105b960048036038101908080356000191690602001909291905050506115dd565b005b3480156105c757600080fd5b506105fc600480360381019080803573ffffffffffffffffffffffffffffffffffffffff169060200190929190505050611829565b6040518080602001828103825283818151815260200191508051906020019080838360005b8381101561063c578082015181840152602081019050610621565b50505050905090810190601f1680156106695780820380516001836020036101000a031916815260200191505b509250505060405180910390f35b34801561068357600080fd5b506106a660048036038101908080356000191690602001909291905050506118d9565b6040518080602001828103825283818151815260200191508051906020019060200280838360005b838110156106e95780820151818401526020810190506106ce565b505050509050019250505060405180910390f35b34801561070957600080fd5b50610756600480360381019080803560001916906020019092919080359060200190929190803573ffffffffffffffffffffffffffffffffffffffff1690602001909291905050506119eb565b6040518082600281111561076657fe5b60ff16815260200191505060405180910390f35b34801561078657600080fd5b506107e1600480360381019080803590602001908201803590602001908080601f0160208091040260200160405190810160405280939291908181526020018383808284378201915050505050509192919290505050611ae0565b005b6108056004803603810190808035600019169060200190929190505050611b97565b005b60036020528160005260406000208181548110151561082257fe5b9060005260206000209060050201600091509150508060000154908060010154908060020154908060030160009054906101000a900460ff16908060030160019054906101000a900460ff16905085565b600082600060016000836000191660001916815260200190815260200160002060000160009054906101000a900473ffffffffffffffffffffffffffffffffffffffff1673ffffffffffffffffffffffffffffffffffffffff16141515156108da57600080fd5b60016000856000191660001916815260200190815260200160002060050160008473ffffffffffffffffffffffffffffffffffffffff1673ffffffffffffffffffffffffffffffffffffffff1681526020019081526020016000205491505092915050565b60016020528060005260406000206000915090508060000160009054906101000a900473ffffffffffffffffffffffffffffffffffffffff1690806001018054600181600116156101000203166002900480601f016020809104026020016040519081016040528092919081815260200182805460018160011615610100020316600290048015610a115780601f106109e657610100808354040283529160200191610a11565b820191906000526020600020905b8154815290600101906020018083116109f457829003601f168201915b505050505090806002018054600181600116156101000203166002900480601f016020809104026020016040519081016040528092919081815260200182805460018160011615610100020316600290048015610aaf5780601f10610a8457610100808354040283529160200191610aaf565b820191906000526020600020905b815481529060010190602001808311610a9257829003601f168201915b5050505050908060030154908060040154908060070154908060080160009054906101000a900460ff16908060080160019054906101000a900473ffffffffffffffffffffffffffffffffffffffff1690806009018054600181600116156101000203166002900480601f016020809104026020016040519081016040528092919081815260200182805460018160011615610100020316600290048015610b985780601f10610b6d57610100808354040283529160200191610b98565b820191906000526020600020905b815481529060010190602001808311610b7b57829003601f168201915b50505050509080600a0160009054906101000a900460ff1690508a565b600080600454803410151515610bca57600080fd5b60008060003373ffffffffffffffffffffffffffffffffffffffff1673ffffffffffffffffffffffffffffffffffffffff16815260200190815260200160002080546001816001161561010002031660029004905014151515610c2c57600080fd5b428560014303406040516020018084815260200183805190602001908083835b602083101515610c715780518252602082019150602081019050602083039250610c4c565b6001836020036101000a038019825116818451168082178552505050505050905001826000191660001916815260200193505050506040516020818303038152906040526040518082805190602001908083835b602083101515610cea5780518252602082019150602081019050602083039250610cc5565b6001836020036101000a03801982511681845116808217855250505050505090500191505060405180910390209250600160008460001916600019168152602001908152602001600020915060008260000160009054906101000a900473ffffffffffffffffffffffffffffffffffffffff1673ffffffffffffffffffffffffffffffffffffffff16141515610d7f57600080fd5b338260000160006101000a81548173ffffffffffffffffffffffffffffffffffffffff021916908373ffffffffffffffffffffffffffffffffffffffff16021790555084826001019080519060200190610dda929190611e30565b5083826002019080519060200190610df3929190611e30565b5082826003018160001916905550600082600a0160006101000a81548160ff02191690836002811115610e2257fe5b021790555060028390806001815401808255809150509060018203906000526020600020016000909192909190915090600019169055505050505050565b60606002805480602002602001604051908101604052809291908181526020018280548015610eb257602002820191906000526020600020905b81546000191681526020019060010190808311610e9a575b5050505050905090565b600081600060016000836000191660001916815260200190815260200160002060000160009054906101000a900473ffffffffffffffffffffffffffffffffffffffff1673ffffffffffffffffffffffffffffffffffffffff1614151515610f2357600080fd5b60008060003373ffffffffffffffffffffffffffffffffffffffff1673ffffffffffffffffffffffffffffffffffffffff16815260200190815260200160002080546001816001161561010002031660029004905014151515610f8557600080fd5b60016000846000191660001916815260200190815260200160002091508160080160019054906101000a900473ffffffffffffffffffffffffffffffffffffffff1673ffffffffffffffffffffffffffffffffffffffff163373ffffffffffffffffffffffffffffffffffffffff1614151561100057600080fd5b6001600281111561100d57fe5b82600a0160009054906101000a900460ff16600281111561102a57fe5b14151561103657600080fd5b505050565b60028181548110151561104a57fe5b906000526020600020016000915090505481565b600080600084600060016000836000191660001916815260200190815260200160002060000160009054906101000a900473ffffffffffffffffffffffffffffffffffffffff1673ffffffffffffffffffffffffffffffffffffffff16141515156110c857600080fd5b60008060003373ffffffffffffffffffffffffffffffffffffffff1673ffffffffffffffffffffffffffffffffffffffff1681526020019081526020016000208054600181600116156101000203166002900490501415151561112a57600080fd5b85600060016000836000191660001916815260200190815260200160002060080160019054906101000a900473ffffffffffffffffffffffffffffffffffffffff1673ffffffffffffffffffffffffffffffffffffffff161415151561118f57600080fd5b6001600088600019166000191681526020019081526020016000209450600160028111156111b957fe5b85600a0160009054906101000a900460ff1660028111156111d657fe5b1415156111e257600080fd5b8460080160009054906101000a900460ff16151561123b5784600701600081548092919060010191905055508460070154600360008960001916600019168152602001908152602001600020816112399190611eb0565b505b600185600701540393506003600088600019166000191681526020019081526020016000208481548110151561126d57fe5b906000526020600020906005020192506000600281111561128a57fe5b8360040160003373ffffffffffffffffffffffffffffffffffffffff1673ffffffffffffffffffffffffffffffffffffffff16815260200190815260200160002060009054906101000a900460ff1660028111156112e457fe5b1415156112f057600080fd5b8260030160019054906101000a900460ff1615151561130e57600080fd5b8460080160009054906101000a900460ff1615156113635760018560080160006101000a81548160ff02191690831515021790555060016002866006018054905081151561135857fe5b040183600201819055505b851561146057826000016000815480929190600101919050555060018360040160003373ffffffffffffffffffffffffffffffffffffffff1673ffffffffffffffffffffffffffffffffffffffff16815260200190815260200160002060006101000a81548160ff021916908360028111156113db57fe5b02179055508260020154836000015410151561145b5760018360030160016101000a81548160ff02191690831515021790555060018360030160006101000a81548160ff021916908315150217905550600285600a0160006101000a81548160ff0219169083600281111561144c57fe5b021790555061145a85611d63565b5b6115d4565b826001016000815480929190600101919050555060028360040160003373ffffffffffffffffffffffffffffffffffffffff1673ffffffffffffffffffffffffffffffffffffffff16815260200190815260200160002060006101000a81548160ff021916908360028111156114d257fe5b0217905550826002015483600101541015156115d35760018360030160016101000a81548160ff02191690831515021790555060008360030160006101000a81548160ff02191690831515021790555060008560080160016101000a81548173ffffffffffffffffffffffffffffffffffffffff021916908373ffffffffffffffffffffffffffffffffffffffff160217905550602060405190810160405280600081525085600901908051906020019061158e929190611e30565b50600085600a0160006101000a81548160ff021916908360028111156115b057fe5b021790555060008560080160006101000a81548160ff0219169083151502179055505b5b50505050505050565b600081600060016000836000191660001916815260200190815260200160002060000160009054906101000a900473ffffffffffffffffffffffffffffffffffffffff1673ffffffffffffffffffffffffffffffffffffffff161415151561164457600080fd5b60008060003373ffffffffffffffffffffffffffffffffffffffff1673ffffffffffffffffffffffffffffffffffffffff168152602001908152602001600020805460018160011615610100020316600290049050141515156116a657600080fd5b6006548034101515156116b857600080fd5b8360016000826000191660001916815260200190815260200160002060080160009054906101000a900460ff161515156116f157600080fd5b600160008660001916600019168152602001908152602001600020935060008460050160003373ffffffffffffffffffffffffffffffffffffffff1673ffffffffffffffffffffffffffffffffffffffff1681526020019081526020016000205414156117c157836006013390806001815401808255809150509060018203906000526020600020016000909192909190916101000a81548173ffffffffffffffffffffffffffffffffffffffff021916908373ffffffffffffffffffffffffffffffffffffffff160217905550505b348460050160003373ffffffffffffffffffffffffffffffffffffffff1673ffffffffffffffffffffffffffffffffffffffff168152602001908152602001600020600082825401925050819055503484600401600082825401925050819055505050505050565b60006020528060005260406000206000915090508054600181600116156101000203166002900480601f0160208091040260200160405190810160405280929190818152602001828054600181600116156101000203166002900480156118d15780601f106118a6576101008083540402835291602001916118d1565b820191906000526020600020905b8154815290600101906020018083116118b457829003601f168201915b505050505081565b606081600060016000836000191660001916815260200190815260200160002060000160009054906101000a900473ffffffffffffffffffffffffffffffffffffffff1673ffffffffffffffffffffffffffffffffffffffff161415151561194057600080fd5b6001600084600019166000191681526020019081526020016000206006018054806020026020016040519081016040528092919081815260200182805480156119de57602002820191906000526020600020905b8160009054906101000a900473ffffffffffffffffffffffffffffffffffffffff1673ffffffffffffffffffffffffffffffffffffffff1681526020019060010190808311611994575b5050505050915050919050565b600083600060016000836000191660001916815260200190815260200160002060000160009054906101000a900473ffffffffffffffffffffffffffffffffffffffff1673ffffffffffffffffffffffffffffffffffffffff1614151515611a5257600080fd5b60036000866000191660001916815260200190815260200160002084815481101515611a7a57fe5b906000526020600020906005020160040160008473ffffffffffffffffffffffffffffffffffffffff1673ffffffffffffffffffffffffffffffffffffffff16815260200190815260200160002060009054906101000a900460ff169150509392505050565b60008060003373ffffffffffffffffffffffffffffffffffffffff1673ffffffffffffffffffffffffffffffffffffffff168152602001908152602001600020805460018160011615610100020316600290049050141515611b4157600080fd5b806000803373ffffffffffffffffffffffffffffffffffffffff1673ffffffffffffffffffffffffffffffffffffffff1681526020019081526020016000209080519060200190611b93929190611e30565b5050565b6000600554803410151515611bab57600080fd5b82600060016000836000191660001916815260200190815260200160002060000160009054906101000a900473ffffffffffffffffffffffffffffffffffffffff1673ffffffffffffffffffffffffffffffffffffffff1614151515611c1057600080fd5b83600060016000836000191660001916815260200190815260200160002060080160019054906101000a900473ffffffffffffffffffffffffffffffffffffffff1673ffffffffffffffffffffffffffffffffffffffff16141515611c7457600080fd5b60008060003373ffffffffffffffffffffffffffffffffffffffff1673ffffffffffffffffffffffffffffffffffffffff16815260200190815260200160002080546001816001161561010002031660029004905014151515611cd657600080fd5b6001600086600019166000191681526020019081526020016000209350338460080160016101000a81548173ffffffffffffffffffffffffffffffffffffffff021916908373ffffffffffffffffffffffffffffffffffffffff160217905550600184600a0160006101000a81548160ff02191690836002811115611d5757fe5b02179055505050505050565b600080600083600401549250600283811515611d7b57fe5b0491508183039050611db18460000160009054906101000a900473ffffffffffffffffffffffffffffffffffffffff1682611de5565b611ddf8460080160019054906101000a900473ffffffffffffffffffffffffffffffffffffffff1683611de5565b50505050565b8173ffffffffffffffffffffffffffffffffffffffff166108fc829081150290604051600060405180830381858888f19350505050158015611e2b573d6000803e3d6000fd5b505050565b828054600181600116156101000203166002900490600052602060002090601f016020900481019282601f10611e7157805160ff1916838001178555611e9f565b82800160010185558215611e9f579182015b82811115611e9e578251825591602001919060010190611e83565b5b509050611eac9190611ee2565b5090565b815481835581811115611edd57600502816005028360005260206000209182019101611edc9190611f07565b5b505050565b611f0491905b80821115611f00576000816000905550600101611ee8565b5090565b90565b611f6391905b80821115611f5f57600080820160009055600182016000905560028201600090556003820160006101000a81549060ff02191690556003820160016101000a81549060ff021916905550600501611f0d565b5090565b905600a165627a7a72305820000c19ca92d9592813c0213af5de22e58b27523789e115a8ef7abd408b5898e10029",
  "source": "pragma solidity 0.4.24;\n\ncontract Science {\n    enum ResearchState {PUBLISHED, PENDING, REPRODUCED}\n    enum VotedState {NOT_VOTED, VOTED_FOR, VOTED_AGAINST}\n    \n    struct Vote {\n        uint votedFor;\n        uint votedAgainst;\n        uint target;\n        bool result;\n        bool completed;\n        \n        mapping(address => VotedState) voted;\n    }\n    \n    struct Research {\n        address researcher;\n        string paperURL;\n        string title;\n        bytes32 id;\n        \n        uint stakedAmount;\n        mapping(address => uint) staked;\n        address[] stakers;\n        \n        uint votesLength;\n        bool isLocked;\n        \n        address reproducer;\n        string reproducedURL;\n        \n        ResearchState state;\n    }\n    \n    mapping (address => string) public addressToOrcid;\n    \n    mapping (bytes32 => Research) public researches;\n    bytes32[] public researchKeys;\n    \n    mapping (bytes32 => Vote[]) public votes;\n    \n    \n    uint publishFee = 1 ether;\n    uint reproduceFee = 1 ether;\n    uint minStake = 1 ether;\n    \n    modifier paidEnough(uint fee) {\n        require(msg.value >= fee);\n        _;\n    }\n    \n    modifier researchExists(bytes32 id) {\n        require(researches[id].researcher != 0x0);\n        _;\n    }\n    \n    modifier researchNotReproducing(bytes32 id) {\n        require(researches[id].reproducer == 0x0);\n        _;\n    }\n    \n    modifier researchReproducing(bytes32 id) {\n        require(researches[id].reproducer != 0x0);\n        _;\n    }\n    \n    modifier researchNotLocked(bytes32 id) {\n        require(!researches[id].isLocked);\n        _;\n    }\n    \n    modifier researchPending(bytes32 id) {\n        require(researches[id].state == ResearchState.PENDING);\n        _;\n    }\n    \n    modifier isRegistered() {\n        require(bytes(addressToOrcid[msg.sender]).length != 0);\n        _;\n    }\n       \n    constructor () public payable {\n        //...\n    }\n    \n    //read\n    function getResearchKeys() public view returns (bytes32[]) {\n        return researchKeys;\n    }\n    \n    function getResearchStakers(bytes32 id) public view researchExists(id) returns (address[]) {\n        return researches[id].stakers;\n    }\n    \n    function getStake(bytes32 id, address adr) public view researchExists(id) returns (uint) {\n        return researches[id].staked[adr];\n    }\n    \n    function getVote(bytes32 id, uint voteIdx, address adr) public view researchExists(id) returns (VotedState) {\n        return votes[id][voteIdx].voted[adr];\n    }\n    \n    //write\n    function register(string orcid) {\n        require(bytes(addressToOrcid[msg.sender]).length == 0);\n        addressToOrcid[msg.sender] = orcid;\n    }\n    \n    function publishResearch(string paperURL, string title) public payable paidEnough(publishFee) isRegistered() {\n        bytes32 id = keccak256(abi.encodePacked(now, paperURL, blockhash(block.number-1)));\n        Research storage res = researches[id];\n        \n        //somehow it shouldn't overlap\n        require(res.researcher == 0x0);\n        \n        res.researcher = msg.sender;\n        res.paperURL = paperURL;\n        res.title = title;\n        res.id = id;\n        res.state = ResearchState.PUBLISHED;\n        \n        researchKeys.push(id);\n    }\n    \n    function stakeResearch(bytes32 id) public payable researchExists(id) isRegistered() paidEnough(minStake) researchNotLocked(id) {\n        \n        Research storage res = researches[id];\n        \n        if(res.staked[msg.sender] == 0) {\n            res.stakers.push(msg.sender);\n        }\n        res.staked[msg.sender] += msg.value;\n        res.stakedAmount += msg.value;\n    }\n    \n    //TODO: Withdraw stake\n    \n    function startReproduce(bytes32 id) public payable paidEnough(reproduceFee) researchExists(id) researchNotReproducing(id) isRegistered() {\n        Research storage res = researches[id];\n        \n        res.reproducer = msg.sender;\n        res.state = ResearchState.PENDING;\n    }\n    \n    function submitReproduction(bytes32 id) public researchExists(id) isRegistered() {\n        Research storage res = researches[id];\n        require(msg.sender == res.reproducer);\n        require(res.state == ResearchState.PENDING);\n        \n        //TODO\n    }\n    \n    function vote(bytes32 id, bool voteFor) public researchExists(id) isRegistered() researchReproducing(id) {\n        Research storage res = researches[id];\n        \n        require(res.state == ResearchState.PENDING);\n        \n        uint voteIdx;\n        \n        if(!res.isLocked) { //if there isn't a voting going on\n            res.votesLength++;\n            votes[id].length = res.votesLength;\n        }\n        \n        voteIdx = res.votesLength-1;\n        \n        Vote storage voteObj = votes[id][voteIdx];\n        \n        require(voteObj.voted[msg.sender] == VotedState.NOT_VOTED); // no double voting\n        require(!voteObj.completed); // no necro voting\n        \n        if(!res.isLocked) {\n            res.isLocked = true;\n            \n            voteObj.target = res.stakers.length / 2 + 1; //50% + 1 consensus\n        }\n        \n        if(voteFor) {\n            voteObj.votedFor++;\n            voteObj.voted[msg.sender] = VotedState.VOTED_FOR;\n            \n            if(voteObj.votedFor >= voteObj.target) {\n                voteObj.completed = true;\n                voteObj.result = true;\n                \n                \n                res.state = ResearchState.REPRODUCED;\n                _researchReproduced(res);\n                //TODO: Event\n            }\n        } else {\n            voteObj.votedAgainst++;\n            voteObj.voted[msg.sender] = VotedState.VOTED_AGAINST;\n            \n            if(voteObj.votedAgainst >= voteObj.target) {\n                voteObj.completed = true;\n                voteObj.result = false;\n                \n                res.reproducer = 0x0; //reset to start\n                res.reproducedURL = \"\";\n                res.state = ResearchState.PUBLISHED;\n                \n                res.isLocked = false;\n                //TODO: Event\n            }\n        }\n    }\n    \n    function _researchReproduced(Research storage res) internal {\n        uint moneyToSplit = res.stakedAmount;\n        uint reproducerGets = moneyToSplit/2;\n        uint researcherGets = moneyToSplit - reproducerGets;\n        \n        _sendMoney(res.researcher, researcherGets);\n        _sendMoney(res.reproducer, reproducerGets);\n    }\n    \n    function _sendMoney(address to, uint value) internal {\n        to.transfer(value); //TODO: withdraw pattern\n    }\n    \n    //TODO: Owner withdraw?\n}",
  "sourcePath": "/home/alex4o/Projects/qub/blockchain/truffle/contracts/science.sol",
  "compiler": {
    "name": "solc",
    "version": "0.4.24+commit.e67f0147.Emscripten.clang"
  },
  "schemaVersion": "2.0.1",
  "updatedAt": "2018-07-21T17:53:50.451Z"
}