{
  "contractName": "Science",
  "abi": [
    {
      "constant": true,
      "inputs": [
        {
          "name": "",
          "type": "bytes32"
        },
        {
          "name": "",
          "type": "uint256"
        }
      ],
      "name": "votes",
      "outputs": [
        {
          "name": "votedFor",
          "type": "uint256"
        },
        {
          "name": "votedAgainst",
          "type": "uint256"
        },
        {
          "name": "target",
          "type": "uint256"
        },
        {
          "name": "result",
          "type": "bool"
        },
        {
          "name": "completed",
          "type": "bool"
        }
      ],
      "payable": false,
      "stateMutability": "view",
      "type": "function"
    },
    {
      "constant": true,
      "inputs": [
        {
          "name": "",
          "type": "bytes32"
        }
      ],
      "name": "researches",
      "outputs": [
        {
          "name": "researcher",
          "type": "address"
        },
        {
          "name": "paperURL",
          "type": "string"
        },
        {
          "name": "title",
          "type": "string"
        },
        {
          "name": "id",
          "type": "bytes32"
        },
        {
          "name": "stakedAmount",
          "type": "uint256"
        },
        {
          "name": "votesLength",
          "type": "uint256"
        },
        {
          "name": "isLocked",
          "type": "bool"
        },
        {
          "name": "reproducer",
          "type": "address"
        },
        {
          "name": "reproducedURL",
          "type": "string"
        },
        {
          "name": "state",
          "type": "uint8"
        }
      ],
      "payable": false,
      "stateMutability": "view",
      "type": "function"
    },
    {
      "constant": true,
      "inputs": [
        {
          "name": "",
          "type": "uint256"
        }
      ],
      "name": "researchKeys",
      "outputs": [
        {
          "name": "",
          "type": "bytes32"
        }
      ],
      "payable": false,
      "stateMutability": "view",
      "type": "function"
    },
    {
      "constant": true,
      "inputs": [
        {
          "name": "",
          "type": "address"
        }
      ],
      "name": "addressToOrcid",
      "outputs": [
        {
          "name": "",
          "type": "string"
        }
      ],
      "payable": false,
      "stateMutability": "view",
      "type": "function"
    },
    {
      "inputs": [],
      "payable": true,
      "stateMutability": "payable",
      "type": "constructor"
    },
    {
      "anonymous": false,
      "inputs": [
        {
          "indexed": true,
          "name": "user",
          "type": "address"
        },
        {
          "indexed": false,
          "name": "orcid",
          "type": "string"
        }
      ],
      "name": "Registration",
      "type": "event"
    },
    {
      "anonymous": false,
      "inputs": [
        {
          "indexed": true,
          "name": "id",
          "type": "bytes32"
        },
        {
          "indexed": true,
          "name": "researcher",
          "type": "address"
        }
      ],
      "name": "ResearchPublished",
      "type": "event"
    },
    {
      "anonymous": false,
      "inputs": [
        {
          "indexed": true,
          "name": "staker",
          "type": "address"
        },
        {
          "indexed": true,
          "name": "id",
          "type": "bytes32"
        },
        {
          "indexed": false,
          "name": "amount",
          "type": "uint256"
        },
        {
          "indexed": false,
          "name": "fullAmount",
          "type": "uint256"
        },
        {
          "indexed": false,
          "name": "stakers",
          "type": "address[]"
        }
      ],
      "name": "Staked",
      "type": "event"
    },
    {
      "anonymous": false,
      "inputs": [
        {
          "indexed": true,
          "name": "reproducer",
          "type": "address"
        },
        {
          "indexed": true,
          "name": "id",
          "type": "bytes32"
        }
      ],
      "name": "StartReproduce",
      "type": "event"
    },
    {
      "anonymous": false,
      "inputs": [
        {
          "indexed": true,
          "name": "reproducer",
          "type": "address"
        },
        {
          "indexed": true,
          "name": "id",
          "type": "bytes32"
        },
        {
          "indexed": false,
          "name": "reproducedURL",
          "type": "string"
        }
      ],
      "name": "SubmitReproduction",
      "type": "event"
    },
    {
      "anonymous": false,
      "inputs": [
        {
          "indexed": true,
          "name": "voter",
          "type": "address"
        },
        {
          "indexed": false,
          "name": "voteFor",
          "type": "bool"
        },
        {
          "indexed": true,
          "name": "id",
          "type": "bytes32"
        },
        {
          "indexed": false,
          "name": "voteIdx",
          "type": "uint256"
        }
      ],
      "name": "Voted",
      "type": "event"
    },
    {
      "anonymous": false,
      "inputs": [
        {
          "indexed": false,
          "name": "result",
          "type": "bool"
        },
        {
          "indexed": true,
          "name": "id",
          "type": "bytes32"
        },
        {
          "indexed": false,
          "name": "voteIdx",
          "type": "uint256"
        }
      ],
      "name": "VoteCompleted",
      "type": "event"
    },
    {
      "constant": true,
      "inputs": [],
      "name": "getResearchKeys",
      "outputs": [
        {
          "name": "",
          "type": "bytes32[]"
        }
      ],
      "payable": false,
      "stateMutability": "view",
      "type": "function"
    },
    {
      "constant": true,
      "inputs": [
        {
          "name": "id",
          "type": "bytes32"
        }
      ],
      "name": "getResearchStakers",
      "outputs": [
        {
          "name": "",
          "type": "address[]"
        }
      ],
      "payable": false,
      "stateMutability": "view",
      "type": "function"
    },
    {
      "constant": true,
      "inputs": [
        {
          "name": "id",
          "type": "bytes32"
        },
        {
          "name": "adr",
          "type": "address"
        }
      ],
      "name": "getStake",
      "outputs": [
        {
          "name": "",
          "type": "uint256"
        }
      ],
      "payable": false,
      "stateMutability": "view",
      "type": "function"
    },
    {
      "constant": true,
      "inputs": [
        {
          "name": "id",
          "type": "bytes32"
        },
        {
          "name": "voteIdx",
          "type": "uint256"
        },
        {
          "name": "adr",
          "type": "address"
        }
      ],
      "name": "getVote",
      "outputs": [
        {
          "name": "",
          "type": "uint8"
        }
      ],
      "payable": false,
      "stateMutability": "view",
      "type": "function"
    },
    {
      "constant": true,
      "inputs": [],
      "name": "getMyOrcid",
      "outputs": [
        {
          "name": "",
          "type": "string"
        }
      ],
      "payable": false,
      "stateMutability": "view",
      "type": "function"
    },
    {
      "constant": false,
      "inputs": [
        {
          "name": "orcid",
          "type": "string"
        }
      ],
      "name": "register",
      "outputs": [],
      "payable": false,
      "stateMutability": "nonpayable",
      "type": "function"
    },
    {
      "constant": false,
      "inputs": [
        {
          "name": "paperURL",
          "type": "string"
        },
        {
          "name": "title",
          "type": "string"
        }
      ],
      "name": "publishResearch",
      "outputs": [],
      "payable": true,
      "stateMutability": "payable",
      "type": "function"
    },
    {
      "constant": false,
      "inputs": [
        {
          "name": "id",
          "type": "bytes32"
        }
      ],
      "name": "stakeResearch",
      "outputs": [],
      "payable": true,
      "stateMutability": "payable",
      "type": "function"
    },
    {
      "constant": false,
      "inputs": [
        {
          "name": "id",
          "type": "bytes32"
        }
      ],
      "name": "startReproduce",
      "outputs": [],
      "payable": true,
      "stateMutability": "payable",
      "type": "function"
    },
    {
      "constant": false,
      "inputs": [
        {
          "name": "id",
          "type": "bytes32"
        },
        {
          "name": "reproducedURL",
          "type": "string"
        }
      ],
      "name": "submitReproduction",
      "outputs": [],
      "payable": false,
      "stateMutability": "nonpayable",
      "type": "function"
    },
    {
      "constant": false,
      "inputs": [
        {
          "name": "id",
          "type": "bytes32"
        },
        {
          "name": "voteFor",
          "type": "bool"
        }
      ],
      "name": "vote",
      "outputs": [],
      "payable": false,
      "stateMutability": "nonpayable",
      "type": "function"
    }
  ],
  "bytecode": "0x6080604052670de0b6b3a7640000600455670de0b6b3a7640000600555670de0b6b3a7640000600655612597806100376000396000f3006080604052600436106100db576000357c0100000000000000000000000000000000000000000000000000000000900463ffffffff1680630301a093146100e05780630847a4fb1461017057806310158870146101e35780635399ab4c1461025a5780635c56f842146102bf5780637199292d146104e45780637659faf014610586578063990e4073146105f25780639f2ce6781461063b578063ac1efa4514610678578063b7609b441461069c578063b9f48c0714610758578063e4ef2759146107de578063f2c298be1461085b578063fe7a1e78146108c4575b600080fd5b3480156100ec57600080fd5b506100f56108e8565b6040518080602001828103825283818151815260200191508051906020019080838360005b8381101561013557808201518184015260208101905061011a565b50505050905090810190601f1680156101625780820380516001836020036101000a031916815260200191505b509250505060405180910390f35b34801561017c57600080fd5b506101a9600480360381019080803560001916906020019092919080359060200190929190505050610a28565b6040518086815260200185815260200184815260200183151515158152602001821515151581526020019550505050505060405180910390f35b3480156101ef57600080fd5b506102586004803603810190808035600019169060200190929190803590602001908201803590602001908080601f0160208091040260200160405190810160405280939291908181526020018383808284378201915050505050509192919290505050610a94565b005b34801561026657600080fd5b506102a96004803603810190808035600019169060200190929190803573ffffffffffffffffffffffffffffffffffffffff169060200190929190505050610ce5565b6040518082815260200191505060405180910390f35b3480156102cb57600080fd5b506102ee6004803603810190808035600019169060200190929190505050610db1565b604051808b73ffffffffffffffffffffffffffffffffffffffff1673ffffffffffffffffffffffffffffffffffffffff16815260200180602001806020018a60001916600019168152602001898152602001888152602001871515151581526020018673ffffffffffffffffffffffffffffffffffffffff1673ffffffffffffffffffffffffffffffffffffffff1681526020018060200185600281111561039257fe5b60ff16815260200184810384528d818151815260200191508051906020019080838360005b838110156103d25780820151818401526020810190506103b7565b50505050905090810190601f1680156103ff5780820380516001836020036101000a031916815260200191505b5084810383528c818151815260200191508051906020019080838360005b8381101561043857808201518184015260208101905061041d565b50505050905090810190601f1680156104655780820380516001836020036101000a031916815260200191505b50848103825286818151815260200191508051906020019080838360005b8381101561049e578082015181840152602081019050610483565b50505050905090810190601f1680156104cb5780820380516001836020036101000a031916815260200191505b509d505050505050505050505050505060405180910390f35b610584600480360381019080803590602001908201803590602001908080601f0160208091040260200160405190810160405280939291908181526020018383808284378201915050505050509192919290803590602001908201803590602001908080601f0160208091040260200160405190810160405280939291908181526020018383808284378201915050505050509192919290505050611027565b005b34801561059257600080fd5b5061059b61131a565b6040518080602001828103825283818151815260200191508051906020019060200280838360005b838110156105de5780820151818401526020810190506105c3565b505050509050019250505060405180910390f35b3480156105fe57600080fd5b5061061d60048036038101908080359060200190929190505050611376565b60405180826000191660001916815260200191505060405180910390f35b34801561064757600080fd5b506106766004803603810190808035600019169060200190929190803515159060200190929190505050611399565b005b61069a6004803603810190808035600019169060200190929190505050611a09565b005b3480156106a857600080fd5b506106dd600480360381019080803573ffffffffffffffffffffffffffffffffffffffff169060200190929190505050611d33565b6040518080602001828103825283818151815260200191508051906020019080838360005b8381101561071d578082015181840152602081019050610702565b50505050905090810190601f16801561074a5780820380516001836020036101000a031916815260200191505b509250505060405180910390f35b34801561076457600080fd5b506107876004803603810190808035600019169060200190929190505050611de3565b6040518080602001828103825283818151815260200191508051906020019060200280838360005b838110156107ca5780820151818401526020810190506107af565b505050509050019250505060405180910390f35b3480156107ea57600080fd5b50610837600480360381019080803560001916906020019092919080359060200190929190803573ffffffffffffffffffffffffffffffffffffffff169060200190929190505050611ef5565b6040518082600281111561084757fe5b60ff16815260200191505060405180910390f35b34801561086757600080fd5b506108c2600480360381019080803590602001908201803590602001908080601f0160208091040260200160405190810160405280939291908181526020018383808284378201915050505050509192919290505050611fea565b005b6108e66004803603810190808035600019169060200190929190505050612154565b005b606060008060003373ffffffffffffffffffffffffffffffffffffffff1673ffffffffffffffffffffffffffffffffffffffff1681526020019081526020016000208054600181600116156101000203166002900490501415151561094c57600080fd5b6000803373ffffffffffffffffffffffffffffffffffffffff1673ffffffffffffffffffffffffffffffffffffffff1681526020019081526020016000208054600181600116156101000203166002900480601f016020809104026020016040519081016040528092919081815260200182805460018160011615610100020316600290048015610a1e5780601f106109f357610100808354040283529160200191610a1e565b820191906000526020600020905b815481529060010190602001808311610a0157829003601f168201915b5050505050905090565b600360205281600052604060002081815481101515610a4357fe5b9060005260206000209060050201600091509150508060000154908060010154908060020154908060030160009054906101000a900460ff16908060030160019054906101000a900460ff16905085565b600082600060016000836000191660001916815260200190815260200160002060000160009054906101000a900473ffffffffffffffffffffffffffffffffffffffff1673ffffffffffffffffffffffffffffffffffffffff1614151515610afb57600080fd5b60008060003373ffffffffffffffffffffffffffffffffffffffff1673ffffffffffffffffffffffffffffffffffffffff16815260200190815260200160002080546001816001161561010002031660029004905014151515610b5d57600080fd5b60016000856000191660001916815260200190815260200160002091508160080160019054906101000a900473ffffffffffffffffffffffffffffffffffffffff1673ffffffffffffffffffffffffffffffffffffffff163373ffffffffffffffffffffffffffffffffffffffff16141515610bd857600080fd5b60016002811115610be557fe5b82600a0160009054906101000a900460ff166002811115610c0257fe5b141515610c0e57600080fd5b82826009019080519060200190610c26929190612435565b5083600019163373ffffffffffffffffffffffffffffffffffffffff167f8f31fc2cc31657294232cc270fe96e36cf7a1a5981567cc23528cdf3ac746d09856040518080602001828103825283818151815260200191508051906020019080838360005b83811015610ca5578082015181840152602081019050610c8a565b50505050905090810190601f168015610cd25780820380516001836020036101000a031916815260200191505b509250505060405180910390a350505050565b600082600060016000836000191660001916815260200190815260200160002060000160009054906101000a900473ffffffffffffffffffffffffffffffffffffffff1673ffffffffffffffffffffffffffffffffffffffff1614151515610d4c57600080fd5b60016000856000191660001916815260200190815260200160002060050160008473ffffffffffffffffffffffffffffffffffffffff1673ffffffffffffffffffffffffffffffffffffffff1681526020019081526020016000205491505092915050565b60016020528060005260406000206000915090508060000160009054906101000a900473ffffffffffffffffffffffffffffffffffffffff1690806001018054600181600116156101000203166002900480601f016020809104026020016040519081016040528092919081815260200182805460018160011615610100020316600290048015610e835780601f10610e5857610100808354040283529160200191610e83565b820191906000526020600020905b815481529060010190602001808311610e6657829003601f168201915b505050505090806002018054600181600116156101000203166002900480601f016020809104026020016040519081016040528092919081815260200182805460018160011615610100020316600290048015610f215780601f10610ef657610100808354040283529160200191610f21565b820191906000526020600020905b815481529060010190602001808311610f0457829003601f168201915b5050505050908060030154908060040154908060070154908060080160009054906101000a900460ff16908060080160019054906101000a900473ffffffffffffffffffffffffffffffffffffffff1690806009018054600181600116156101000203166002900480601f01602080910402602001604051908101604052809291908181526020018280546001816001161561010002031660029004801561100a5780601f10610fdf5761010080835404028352916020019161100a565b820191906000526020600020905b815481529060010190602001808311610fed57829003601f168201915b50505050509080600a0160009054906101000a900460ff1690508a565b60008060045480341015151561103c57600080fd5b60008060003373ffffffffffffffffffffffffffffffffffffffff1673ffffffffffffffffffffffffffffffffffffffff1681526020019081526020016000208054600181600116156101000203166002900490501415151561109e57600080fd5b428560014303406040516020018084815260200183805190602001908083835b6020831015156110e357805182526020820191506020810190506020830392506110be565b6001836020036101000a038019825116818451168082178552505050505050905001826000191660001916815260200193505050506040516020818303038152906040526040518082805190602001908083835b60208310151561115c5780518252602082019150602081019050602083039250611137565b6001836020036101000a03801982511681845116808217855250505050505090500191505060405180910390209250600160008460001916600019168152602001908152602001600020915060008260000160009054906101000a900473ffffffffffffffffffffffffffffffffffffffff1673ffffffffffffffffffffffffffffffffffffffff161415156111f157600080fd5b338260000160006101000a81548173ffffffffffffffffffffffffffffffffffffffff021916908373ffffffffffffffffffffffffffffffffffffffff1602179055508482600101908051906020019061124c929190612435565b5083826002019080519060200190611265929190612435565b5082826003018160001916905550600082600a0160006101000a81548160ff0219169083600281111561129457fe5b021790555060028390806001815401808255809150509060018203906000526020600020016000909192909190915090600019169055503373ffffffffffffffffffffffffffffffffffffffff1683600019167f25971a29fade8ec1a11c1594f895d40774180e7a202e34034b89d8a544d2a79b60405160405180910390a35050505050565b6060600280548060200260200160405190810160405280929190818152602001828054801561136c57602002820191906000526020600020905b81546000191681526020019060010190808311611354575b5050505050905090565b60028181548110151561138557fe5b906000526020600020016000915090505481565b600080600084600060016000836000191660001916815260200190815260200160002060000160009054906101000a900473ffffffffffffffffffffffffffffffffffffffff1673ffffffffffffffffffffffffffffffffffffffff161415151561140357600080fd5b60008060003373ffffffffffffffffffffffffffffffffffffffff1673ffffffffffffffffffffffffffffffffffffffff1681526020019081526020016000208054600181600116156101000203166002900490501415151561146557600080fd5b85600060016000836000191660001916815260200190815260200160002060080160019054906101000a900473ffffffffffffffffffffffffffffffffffffffff1673ffffffffffffffffffffffffffffffffffffffff16141515156114ca57600080fd5b6001600088600019166000191681526020019081526020016000209450600160028111156114f457fe5b85600a0160009054906101000a900460ff16600281111561151157fe5b14151561151d57600080fd5b8460080160009054906101000a900460ff16151561157657846007016000815480929190600101919050555084600701546003600089600019166000191681526020019081526020016000208161157491906124b5565b505b60018560070154039350600360008860001916600019168152602001908152602001600020848154811015156115a857fe5b90600052602060002090600502019250600060028111156115c557fe5b8360040160003373ffffffffffffffffffffffffffffffffffffffff1673ffffffffffffffffffffffffffffffffffffffff16815260200190815260200160002060009054906101000a900460ff16600281111561161f57fe5b14151561162b57600080fd5b8260030160019054906101000a900460ff1615151561164957600080fd5b8460080160009054906101000a900460ff16151561169e5760018560080160006101000a81548160ff02191690831515021790555060016002866006018054905081151561169357fe5b040183600201819055505b86600019163373ffffffffffffffffffffffffffffffffffffffff167f620e0c91986d898a25dcad9ca67af5cc5fe22ce99a4df4f6e672f1fd6d81cb66888760405180831515151581526020018281526020019250505060405180910390a3851561184357826000016000815480929190600101919050555060018360040160003373ffffffffffffffffffffffffffffffffffffffff1673ffffffffffffffffffffffffffffffffffffffff16815260200190815260200160002060006101000a81548160ff0219169083600281111561177557fe5b02179055508260020154836000015410151561183e5760018360030160016101000a81548160ff02191690831515021790555060018360030160006101000a81548160ff021916908315150217905550600285600a0160006101000a81548160ff021916908360028111156117e657fe5b02179055506117f485612368565b86600019167fb74231bcd65ecf2c843bc6b5cdac9c7d5272e723dc6e3528d9a179fecc82204c60018660405180831515151581526020018281526020019250505060405180910390a25b611a00565b826001016000815480929190600101919050555060028360040160003373ffffffffffffffffffffffffffffffffffffffff1673ffffffffffffffffffffffffffffffffffffffff16815260200190815260200160002060006101000a81548160ff021916908360028111156118b557fe5b0217905550826002015483600101541015156119ff5760018360030160016101000a81548160ff02191690831515021790555060008360030160006101000a81548160ff02191690831515021790555060008560080160016101000a81548173ffffffffffffffffffffffffffffffffffffffff021916908373ffffffffffffffffffffffffffffffffffffffff1602179055506020604051908101604052806000815250856009019080519060200190611971929190612435565b50600085600a0160006101000a81548160ff0219169083600281111561199357fe5b021790555060008560080160006101000a81548160ff02191690831515021790555086600019167fb74231bcd65ecf2c843bc6b5cdac9c7d5272e723dc6e3528d9a179fecc82204c60008660405180831515151581526020018281526020019250505060405180910390a25b5b50505050505050565b600081600060016000836000191660001916815260200190815260200160002060000160009054906101000a900473ffffffffffffffffffffffffffffffffffffffff1673ffffffffffffffffffffffffffffffffffffffff1614151515611a7057600080fd5b60008060003373ffffffffffffffffffffffffffffffffffffffff1673ffffffffffffffffffffffffffffffffffffffff16815260200190815260200160002080546001816001161561010002031660029004905014151515611ad257600080fd5b600654803410151515611ae457600080fd5b8360016000826000191660001916815260200190815260200160002060080160009054906101000a900460ff16151515611b1d57600080fd5b600160008660001916600019168152602001908152602001600020935060008460050160003373ffffffffffffffffffffffffffffffffffffffff1673ffffffffffffffffffffffffffffffffffffffff168152602001908152602001600020541415611bed57836006013390806001815401808255809150509060018203906000526020600020016000909192909190916101000a81548173ffffffffffffffffffffffffffffffffffffffff021916908373ffffffffffffffffffffffffffffffffffffffff160217905550505b348460050160003373ffffffffffffffffffffffffffffffffffffffff1673ffffffffffffffffffffffffffffffffffffffff1681526020019081526020016000206000828254019250508190555034846004016000828254019250508190555084600019163373ffffffffffffffffffffffffffffffffffffffff167f7e4463147cf0f3ed01ec157c874e8bd150898d3a37c7251d6606fa5a83b783323487600401548860060160405180848152602001838152602001806020018281038252838181548152602001915080548015611d1c57602002820191906000526020600020905b8160009054906101000a900473ffffffffffffffffffffffffffffffffffffffff1673ffffffffffffffffffffffffffffffffffffffff1681526020019060010190808311611cd2575b505094505050505060405180910390a35050505050565b60006020528060005260406000206000915090508054600181600116156101000203166002900480601f016020809104026020016040519081016040528092919081815260200182805460018160011615610100020316600290048015611ddb5780601f10611db057610100808354040283529160200191611ddb565b820191906000526020600020905b815481529060010190602001808311611dbe57829003601f168201915b505050505081565b606081600060016000836000191660001916815260200190815260200160002060000160009054906101000a900473ffffffffffffffffffffffffffffffffffffffff1673ffffffffffffffffffffffffffffffffffffffff1614151515611e4a57600080fd5b600160008460001916600019168152602001908152602001600020600601805480602002602001604051908101604052809291908181526020018280548015611ee857602002820191906000526020600020905b8160009054906101000a900473ffffffffffffffffffffffffffffffffffffffff1673ffffffffffffffffffffffffffffffffffffffff1681526020019060010190808311611e9e575b5050505050915050919050565b600083600060016000836000191660001916815260200190815260200160002060000160009054906101000a900473ffffffffffffffffffffffffffffffffffffffff1673ffffffffffffffffffffffffffffffffffffffff1614151515611f5c57600080fd5b60036000866000191660001916815260200190815260200160002084815481101515611f8457fe5b906000526020600020906005020160040160008473ffffffffffffffffffffffffffffffffffffffff1673ffffffffffffffffffffffffffffffffffffffff16815260200190815260200160002060009054906101000a900460ff169150509392505050565b60008060003373ffffffffffffffffffffffffffffffffffffffff1673ffffffffffffffffffffffffffffffffffffffff16815260200190815260200160002080546001816001161561010002031660029004905014151561204b57600080fd5b806000803373ffffffffffffffffffffffffffffffffffffffff1673ffffffffffffffffffffffffffffffffffffffff168152602001908152602001600020908051906020019061209d929190612435565b503373ffffffffffffffffffffffffffffffffffffffff167f0d8d636375a5c89a44d886dc1bd7257c82dbf9d475396c77cdbf443158ecf4e8826040518080602001828103825283818151815260200191508051906020019080838360005b838110156121175780820151818401526020810190506120fc565b50505050905090810190601f1680156121445780820380516001836020036101000a031916815260200191505b509250505060405180910390a250565b600060055480341015151561216857600080fd5b82600060016000836000191660001916815260200190815260200160002060000160009054906101000a900473ffffffffffffffffffffffffffffffffffffffff1673ffffffffffffffffffffffffffffffffffffffff16141515156121cd57600080fd5b83600060016000836000191660001916815260200190815260200160002060080160019054906101000a900473ffffffffffffffffffffffffffffffffffffffff1673ffffffffffffffffffffffffffffffffffffffff1614151561223157600080fd5b60008060003373ffffffffffffffffffffffffffffffffffffffff1673ffffffffffffffffffffffffffffffffffffffff1681526020019081526020016000208054600181600116156101000203166002900490501415151561229357600080fd5b6001600086600019166000191681526020019081526020016000209350338460080160016101000a81548173ffffffffffffffffffffffffffffffffffffffff021916908373ffffffffffffffffffffffffffffffffffffffff160217905550600184600a0160006101000a81548160ff0219169083600281111561231457fe5b021790555084600019163373ffffffffffffffffffffffffffffffffffffffff167f075f655df7759324b471fb0095f4c29815228232e800928482c15eb0bba9d42460405160405180910390a35050505050565b60008060008360040154925060028381151561238057fe5b04915081830390506123b68460000160009054906101000a900473ffffffffffffffffffffffffffffffffffffffff16826123ea565b6123e48460080160019054906101000a900473ffffffffffffffffffffffffffffffffffffffff16836123ea565b50505050565b8173ffffffffffffffffffffffffffffffffffffffff166108fc829081150290604051600060405180830381858888f19350505050158015612430573d6000803e3d6000fd5b505050565b828054600181600116156101000203166002900490600052602060002090601f016020900481019282601f1061247657805160ff19168380011785556124a4565b828001600101855582156124a4579182015b828111156124a3578251825591602001919060010190612488565b5b5090506124b191906124e7565b5090565b8154818355818111156124e2576005028160050283600052602060002091820191016124e1919061250c565b5b505050565b61250991905b808211156125055760008160009055506001016124ed565b5090565b90565b61256891905b8082111561256457600080820160009055600182016000905560028201600090556003820160006101000a81549060ff02191690556003820160016101000a81549060ff021916905550600501612512565b5090565b905600a165627a7a723058202beb714f3f85fd52cfe7ea238c9dfb99d6975c608ce826330800a6eeef84439f0029",
  "source": "pragma solidity 0.4.24;\n\ncontract Science {\n    event Registration(address indexed user, string orcid);\n    event ResearchPublished(bytes32 indexed id, address indexed researcher);\n    event Staked(address indexed staker, bytes32 indexed id, uint amount, uint fullAmount, address[] stakers);\n    event StartReproduce(address indexed reproducer, bytes32 indexed id);\n    event SubmitReproduction(address indexed reproducer, bytes32 indexed id, string reproducedURL);\n    event Voted(address indexed voter, bool voteFor, bytes32 indexed id, uint voteIdx);\n    event VoteCompleted(bool result, bytes32 indexed id, uint voteIdx);\n\n    enum ResearchState {PUBLISHED, PENDING, REPRODUCED}\n    enum VotedState {NOT_VOTED, VOTED_FOR, VOTED_AGAINST}\n    \n    struct Vote {\n        uint votedFor;\n        uint votedAgainst;\n        uint target;\n        bool result;\n        bool completed;\n        \n        mapping(address => VotedState) voted;\n    }\n    \n    struct Research {\n        address researcher;\n        string paperURL;\n        string title;\n        bytes32 id;\n        \n        uint stakedAmount;\n        mapping(address => uint) staked;\n        address[] stakers;\n        \n        uint votesLength;\n        bool isLocked;\n        \n        address reproducer;\n        string reproducedURL;\n        \n        ResearchState state;\n    }\n    \n    mapping (address => string) public addressToOrcid;\n    \n    mapping (bytes32 => Research) public researches;\n    bytes32[] public researchKeys;\n    \n    mapping (bytes32 => Vote[]) public votes;\n    \n    \n    uint publishFee = 1 ether;\n    uint reproduceFee = 1 ether;\n    uint minStake = 1 ether;\n    \n    modifier paidEnough(uint fee) {\n        require(msg.value >= fee);\n        _;\n    }\n    \n    modifier researchExists(bytes32 id) {\n        require(researches[id].researcher != 0x0);\n        _;\n    }\n    \n    modifier researchNotReproducing(bytes32 id) {\n        require(researches[id].reproducer == 0x0);\n        _;\n    }\n    \n    modifier researchReproducing(bytes32 id) {\n        require(researches[id].reproducer != 0x0);\n        _;\n    }\n    \n    modifier researchNotLocked(bytes32 id) {\n        require(!researches[id].isLocked);\n        _;\n    }\n    \n    modifier researchPending(bytes32 id) {\n        require(researches[id].state == ResearchState.PENDING);\n        _;\n    }\n    \n    modifier isRegistered() {\n        require(bytes(addressToOrcid[msg.sender]).length != 0);\n        _;\n    }\n       \n    constructor () public payable {\n        //...\n    }\n    \n    //read\n    function getResearchKeys() public view returns (bytes32[]) {\n        return researchKeys;\n    }\n    \n    function getResearchStakers(bytes32 id) public view researchExists(id) returns (address[]) {\n        return researches[id].stakers;\n    }\n    \n    function getStake(bytes32 id, address adr) public view researchExists(id) returns (uint) {\n        return researches[id].staked[adr];\n    }\n    \n    function getVote(bytes32 id, uint voteIdx, address adr) public view researchExists(id) returns (VotedState) {\n        return votes[id][voteIdx].voted[adr];\n    }\n    \n    function getMyOrcid() public view isRegistered() returns(string) {\n        return addressToOrcid[msg.sender];\n    }\n\n    //write\n    function register(string orcid) public {\n        require(bytes(addressToOrcid[msg.sender]).length == 0);\n        addressToOrcid[msg.sender] = orcid;\n\n        emit Registration(msg.sender, orcid);\n    }\n    \n    function publishResearch(string paperURL, string title) public payable paidEnough(publishFee) isRegistered() {\n        bytes32 id = keccak256(abi.encodePacked(now, paperURL, blockhash(block.number-1)));\n        Research storage res = researches[id];\n        \n        //somehow it shouldn't overlap\n        require(res.researcher == 0x0);\n        \n        res.researcher = msg.sender;\n        res.paperURL = paperURL;\n        res.title = title;\n        res.id = id;\n        res.state = ResearchState.PUBLISHED;\n        \n        researchKeys.push(id);\n\n        emit ResearchPublished(id, msg.sender);\n    }\n    \n    function stakeResearch(bytes32 id) public payable researchExists(id) isRegistered() paidEnough(minStake) researchNotLocked(id) {\n        \n        Research storage res = researches[id];\n        \n        if(res.staked[msg.sender] == 0) {\n            res.stakers.push(msg.sender);\n        }\n        res.staked[msg.sender] += msg.value;\n        res.stakedAmount += msg.value;\n\n        emit Staked(msg.sender, id, msg.value, res.stakedAmount, res.stakers);\n    }\n    \n    //TODO: Withdraw stake\n    \n    function startReproduce(bytes32 id) public payable paidEnough(reproduceFee) researchExists(id) researchNotReproducing(id) isRegistered() {\n        Research storage res = researches[id];\n        \n        res.reproducer = msg.sender;\n        res.state = ResearchState.PENDING;\n\n        emit StartReproduce(msg.sender, id);\n    }\n    \n    function submitReproduction(bytes32 id, string reproducedURL) public researchExists(id) isRegistered() {\n        Research storage res = researches[id];\n        require(msg.sender == res.reproducer);\n        require(res.state == ResearchState.PENDING);\n        \n        res.reproducedURL = reproducedURL;\n\n        emit SubmitReproduction(msg.sender, id, reproducedURL);\n    }\n    \n    function vote(bytes32 id, bool voteFor) public researchExists(id) isRegistered() researchReproducing(id) {\n        Research storage res = researches[id];\n        \n        require(res.state == ResearchState.PENDING);\n        \n        uint voteIdx;\n        \n        if(!res.isLocked) { //if there isn't a voting going on\n            res.votesLength++;\n            votes[id].length = res.votesLength;\n        }\n        \n        voteIdx = res.votesLength-1;\n        \n        Vote storage voteObj = votes[id][voteIdx];\n        \n        require(voteObj.voted[msg.sender] == VotedState.NOT_VOTED); // no double voting\n        require(!voteObj.completed); // no necro voting\n        \n        if(!res.isLocked) {\n            res.isLocked = true;\n            \n            voteObj.target = res.stakers.length / 2 + 1; //50% + 1 consensus\n        }\n        \n        emit Voted(msg.sender, voteFor, id, voteIdx);\n\n        if(voteFor) {\n            voteObj.votedFor++;\n            voteObj.voted[msg.sender] = VotedState.VOTED_FOR;\n            \n            if(voteObj.votedFor >= voteObj.target) {\n                voteObj.completed = true;\n                voteObj.result = true;\n                \n                \n                res.state = ResearchState.REPRODUCED;\n                _researchReproduced(res);\n\n                emit VoteCompleted(true, id, voteIdx);\n            }\n        } else {\n            voteObj.votedAgainst++;\n            voteObj.voted[msg.sender] = VotedState.VOTED_AGAINST;\n            \n            if(voteObj.votedAgainst >= voteObj.target) {\n                voteObj.completed = true;\n                voteObj.result = false;\n                \n                res.reproducer = 0x0; //reset to start\n                res.reproducedURL = \"\";\n                res.state = ResearchState.PUBLISHED;\n                \n                res.isLocked = false;\n\n                emit VoteCompleted(false, id, voteIdx);\n            }\n        }\n    }\n    \n    function _researchReproduced(Research storage res) internal {\n        uint moneyToSplit = res.stakedAmount;\n        uint reproducerGets = moneyToSplit/2;\n        uint researcherGets = moneyToSplit - reproducerGets;\n        \n        _sendMoney(res.researcher, researcherGets);\n        _sendMoney(res.reproducer, reproducerGets);\n    }\n    \n    function _sendMoney(address to, uint value) internal {\n        to.transfer(value); //TODO: withdraw pattern\n    }\n    \n    //TODO: Owner withdraw?\n}",
  "sourcePath": "/home/alex4o/Projects/qub/blockchain/truffle/contracts/science.sol",
  "compiler": {
    "name": "solc",
    "version": "0.4.24+commit.e67f0147.Emscripten.clang"
  },
  "schemaVersion": "2.0.1",
  "updatedAt": "2018-07-22T07:23:53.664Z"
}